{
  "contractName": "CertificateContract",
  "abi": [
    {
      "inputs": [
        {
          "internalType": "uint256",
          "name": "",
          "type": "uint256"
        }
      ],
      "name": "certificates",
      "outputs": [
        {
          "internalType": "string",
          "name": "",
          "type": "string"
        }
      ],
      "stateMutability": "view",
      "type": "function",
      "constant": true
    },
    {
      "inputs": [
        {
          "internalType": "string",
          "name": "newCertificateUUID",
          "type": "string"
        }
      ],
      "name": "addCertificate",
      "outputs": [],
      "stateMutability": "nonpayable",
      "type": "function"
    },
    {
      "inputs": [
        {
          "internalType": "string",
          "name": "search",
          "type": "string"
        }
      ],
      "name": "findCertificate",
      "outputs": [
        {
          "internalType": "bool",
          "name": "",
          "type": "bool"
        }
      ],
      "stateMutability": "view",
      "type": "function",
      "constant": true
    },
    {
      "inputs": [],
      "name": "getCertificateCount",
      "outputs": [
        {
          "internalType": "uint256",
          "name": "",
          "type": "uint256"
        }
      ],
      "stateMutability": "view",
      "type": "function",
      "constant": true
    }
  ],
  "bytecode": "0x608060405234801561000f575f80fd5b5061097b8061001d5f395ff3fe608060405234801561000f575f80fd5b506004361061004a575f3560e01c80630a99e4f81461004e578063663b3e221461006a5780638809f7271461009a578063b976e9d7146100b8575b5f80fd5b6100686004803603810190610063919061038f565b6100e8565b005b610084600480360381019061007f9190610409565b61011c565b60405161009191906104ae565b60405180910390f35b6100a26101c1565b6040516100af91906104dd565b60405180910390f35b6100d260048036038101906100cd919061038f565b6101cc565b6040516100df9190610510565b60405180910390f35b5f81908060018154018082558091505060019003905f5260205f20015f9091909190915090816101189190610723565b5050565b5f818154811061012a575f80fd5b905f5260205f20015f91509050805461014290610556565b80601f016020809104026020016040519081016040528092919081815260200182805461016e90610556565b80156101b95780601f10610190576101008083540402835291602001916101b9565b820191905f5260205f20905b81548152906001019060200180831161019c57829003601f168201915b505050505081565b5f8080549050905090565b5f805f90505b5f805490508110156102385782805190602001205f82815481106101f9576101f86107f2565b5b905f5260205f200160405161020e91906108bb565b60405180910390200361022557600191505061023d565b8080610230906108fe565b9150506101d2565b505f90505b919050565b5f604051905090565b5f80fd5b5f80fd5b5f80fd5b5f80fd5b5f601f19601f8301169050919050565b7f4e487b71000000000000000000000000000000000000000000000000000000005f52604160045260245ffd5b6102a18261025b565b810181811067ffffffffffffffff821117156102c0576102bf61026b565b5b80604052505050565b5f6102d2610242565b90506102de8282610298565b919050565b5f67ffffffffffffffff8211156102fd576102fc61026b565b5b6103068261025b565b9050602081019050919050565b828183375f83830152505050565b5f61033361032e846102e3565b6102c9565b90508281526020810184848401111561034f5761034e610257565b5b61035a848285610313565b509392505050565b5f82601f83011261037657610375610253565b5b8135610386848260208601610321565b91505092915050565b5f602082840312156103a4576103a361024b565b5b5f82013567ffffffffffffffff8111156103c1576103c061024f565b5b6103cd84828501610362565b91505092915050565b5f819050919050565b6103e8816103d6565b81146103f2575f80fd5b50565b5f81359050610403816103df565b92915050565b5f6020828403121561041e5761041d61024b565b5b5f61042b848285016103f5565b91505092915050565b5f81519050919050565b5f82825260208201905092915050565b5f5b8381101561046b578082015181840152602081019050610450565b5f8484015250505050565b5f61048082610434565b61048a818561043e565b935061049a81856020860161044e565b6104a38161025b565b840191505092915050565b5f6020820190508181035f8301526104c68184610476565b905092915050565b6104d7816103d6565b82525050565b5f6020820190506104f05f8301846104ce565b92915050565b5f8115159050919050565b61050a816104f6565b82525050565b5f6020820190506105235f830184610501565b92915050565b7f4e487b71000000000000000000000000000000000000000000000000000000005f52602260045260245ffd5b5f600282049050600182168061056d57607f821691505b6020821081036105805761057f610529565b5b50919050565b5f819050815f5260205f209050919050565b5f6020601f8301049050919050565b5f82821b905092915050565b5f600883026105e27fffffffffffffffffffffffffffffffffffffffffffffffffffffffffffffffff826105a7565b6105ec86836105a7565b95508019841693508086168417925050509392505050565b5f819050919050565b5f61062761062261061d846103d6565b610604565b6103d6565b9050919050565b5f819050919050565b6106408361060d565b61065461064c8261062e565b8484546105b3565b825550505050565b5f90565b61066861065c565b610673818484610637565b505050565b5b818110156106965761068b5f82610660565b600181019050610679565b5050565b601f8211156106db576106ac81610586565b6106b584610598565b810160208510156106c4578190505b6106d86106d085610598565b830182610678565b50505b505050565b5f82821c905092915050565b5f6106fb5f19846008026106e0565b1980831691505092915050565b5f61071383836106ec565b9150826002028217905092915050565b61072c82610434565b67ffffffffffffffff8111156107455761074461026b565b5b61074f8254610556565b61075a82828561069a565b5f60209050601f83116001811461078b575f8415610779578287015190505b6107838582610708565b8655506107ea565b601f19841661079986610586565b5f5b828110156107c05784890151825560018201915060208501945060208101905061079b565b868310156107dd57848901516107d9601f8916826106ec565b8355505b6001600288020188555050505b505050505050565b7f4e487b71000000000000000000000000000000000000000000000000000000005f52603260045260245ffd5b5f81905092915050565b5f819050815f5260205f209050919050565b5f815461084781610556565b610851818661081f565b9450600182165f811461086b5760018114610880576108b2565b60ff19831686528115158202860193506108b2565b61088985610829565b5f5b838110156108aa5781548189015260018201915060208101905061088b565b838801955050505b50505092915050565b5f6108c6828461083b565b915081905092915050565b7f4e487b71000000000000000000000000000000000000000000000000000000005f52601160045260245ffd5b5f610908826103d6565b91507fffffffffffffffffffffffffffffffffffffffffffffffffffffffffffffffff820361093a576109396108d1565b5b60018201905091905056fea264697066735822122059bbe63ddb2d68094575a693f07cf2be061c9dff44efc2bdfe036c598980277564736f6c63430008140033",
  "immutableReferences": {},
  "source": "// SPDX-License-Identifier: MIT\npragma solidity ^0.8.0;\n\ncontract CertificateContract {\n    string[] public certificates;\n\n    function addCertificate(string memory newCertificateUUID) public {\n        certificates.push(newCertificateUUID);\n    }\n\n    function findCertificate(string memory search) public view returns (bool) {\n        for (uint i = 0; i < certificates.length; i++) {\n            if (keccak256(bytes(certificates[i])) == keccak256(bytes(search))) {\n                return true;\n            }\n        }\n        return false;\n    }\n\n    function getCertificateCount() public view returns (uint) {\n        return certificates.length;\n    }\n}\n",
  "sourcePath": "/Users/hugolima/GitHub/DCC603-finalProj-backend-GHK/ethereum/contracts/CertificateContract.sol",
  "compiler": {
    "name": "solc",
    "version": "0.8.20+commit.a1b79de6.Emscripten.clang"
  },
  "schemaVersion": "3.4.14",
  "updatedAt": "2023-06-04T15:31:21.743Z",
  "networkType": "ethereum",
  "devdoc": {
    "kind": "dev",
    "methods": {},
    "version": 1
  },
  "userdoc": {
    "kind": "user",
    "methods": {},
    "version": 1
  }
}